{
    "contractName": "Drop",
    "abi": [
        {
            "inputs": [
                {
                    "internalType": "address",
                    "name": "_token",
                    "type": "address"
                },
                {
                    "internalType": "uint256",
                    "name": "_dropAmount",
                    "type": "uint256"
                },
                {
                    "internalType": "address",
                    "name": "_initialOwner",
                    "type": "address"
                }
            ],
            "stateMutability": "nonpayable",
            "type": "constructor"
        },
        {
            "inputs": [
                {
                    "internalType": "address",
                    "name": "owner",
                    "type": "address"
                }
            ],
            "name": "OwnableInvalidOwner",
            "type": "error"
        },
        {
            "inputs": [
                {
                    "internalType": "address",
                    "name": "account",
                    "type": "address"
                }
            ],
            "name": "OwnableUnauthorizedAccount",
            "type": "error"
        },
        {
            "anonymous": false,
            "inputs": [
                {
                    "indexed": true,
                    "internalType": "address",
                    "name": "previousOwner",
                    "type": "address"
                },
                {
                    "indexed": true,
                    "internalType": "address",
                    "name": "newOwner",
                    "type": "address"
                }
            ],
            "name": "OwnershipTransferred",
            "type": "event"
        },
        {
            "anonymous": false,
            "inputs": [
                {
                    "indexed": false,
                    "internalType": "address",
                    "name": "_to",
                    "type": "address"
                },
                {
                    "indexed": false,
                    "internalType": "uint256",
                    "name": "amount",
                    "type": "uint256"
                }
            ],
            "name": "TransferDrop",
            "type": "event"
        },
        {
            "anonymous": false,
            "inputs": [
                {
                    "indexed": false,
                    "internalType": "address",
                    "name": "_to",
                    "type": "address"
                },
                {
                    "indexed": false,
                    "internalType": "uint256",
                    "name": "amout",
                    "type": "uint256"
                }
            ],
            "name": "Withdraw",
            "type": "event"
        },
        {
            "inputs": [],
            "name": "dropAmount",
            "outputs": [
                {
                    "internalType": "uint256",
                    "name": "",
                    "type": "uint256"
                }
            ],
            "stateMutability": "view",
            "type": "function"
        },
        {
            "inputs": [],
            "name": "owner",
            "outputs": [
                {
                    "internalType": "address",
                    "name": "",
                    "type": "address"
                }
            ],
            "stateMutability": "view",
            "type": "function"
        },
        {
            "inputs": [],
            "name": "renounceOwnership",
            "outputs": [],
            "stateMutability": "nonpayable",
            "type": "function"
        },
        {
            "inputs": [],
            "name": "token",
            "outputs": [
                {
                    "internalType": "contract IERC20",
                    "name": "",
                    "type": "address"
                }
            ],
            "stateMutability": "view",
            "type": "function"
        },
        {
            "inputs": [
                {
                    "internalType": "address",
                    "name": "newOwner",
                    "type": "address"
                }
            ],
            "name": "transferOwnership",
            "outputs": [],
            "stateMutability": "nonpayable",
            "type": "function"
        },
        {
            "inputs": [
                {
                    "internalType": "address",
                    "name": "",
                    "type": "address"
                }
            ],
            "name": "verification",
            "outputs": [
                {
                    "internalType": "bool",
                    "name": "",
                    "type": "bool"
                }
            ],
            "stateMutability": "view",
            "type": "function"
        },
        {
            "inputs": [],
            "name": "getDrop",
            "outputs": [],
            "stateMutability": "nonpayable",
            "type": "function"
        },
        {
            "inputs": [],
            "name": "getBalance",
            "outputs": [
                {
                    "internalType": "uint256",
                    "name": "",
                    "type": "uint256"
                }
            ],
            "stateMutability": "view",
            "type": "function"
        },
        {
            "inputs": [],
            "name": "withdraw",
            "outputs": [],
            "stateMutability": "nonpayable",
            "type": "function"
        },
        {
            "inputs": [
                {
                    "internalType": "uint256",
                    "name": "_amount",
                    "type": "uint256"
                }
            ],
            "name": "dropAmountChange",
            "outputs": [],
            "stateMutability": "nonpayable",
            "type": "function"
        },
        {
            "inputs": [
                {
                    "internalType": "address",
                    "name": "_newTokenAdress",
                    "type": "address"
                }
            ],
            "name": "changeToken",
            "outputs": [],
            "stateMutability": "nonpayable",
            "type": "function"
        },
        {
            "inputs": [
                {
                    "internalType": "address",
                    "name": "_dropper",
                    "type": "address"
                }
            ],
            "name": "changeVerification",
            "outputs": [],
            "stateMutability": "nonpayable",
            "type": "function"
        }
    ],
    "bytecode": "0x608060405234801562000010575f80fd5b50604051620011bc380380620011bc8339818101604052810190620000369190620002db565b805f73ffffffffffffffffffffffffffffffffffffffff168173ffffffffffffffffffffffffffffffffffffffff1603620000aa575f6040517f1e4fbdf7000000000000000000000000000000000000000000000000000000008152600401620000a1919062000345565b60405180910390fd5b620000bb816200017d60201b60201c565b505f73ffffffffffffffffffffffffffffffffffffffff168373ffffffffffffffffffffffffffffffffffffffff16036200012d576040517f08c379a00000000000000000000000000000000000000000000000000000000081526004016200012490620003be565b60405180910390fd5b8260015f6101000a81548173ffffffffffffffffffffffffffffffffffffffff021916908373ffffffffffffffffffffffffffffffffffffffff16021790555081600381905550505050620003de565b5f805f9054906101000a900473ffffffffffffffffffffffffffffffffffffffff169050815f806101000a81548173ffffffffffffffffffffffffffffffffffffffff021916908373ffffffffffffffffffffffffffffffffffffffff1602179055508173ffffffffffffffffffffffffffffffffffffffff168173ffffffffffffffffffffffffffffffffffffffff167f8be0079c531659141344cd1fd0a4f28419497f9722a3daafe3b4186f6b6457e060405160405180910390a35050565b5f80fd5b5f73ffffffffffffffffffffffffffffffffffffffff82169050919050565b5f6200026d8262000242565b9050919050565b6200027f8162000261565b81146200028a575f80fd5b50565b5f815190506200029d8162000274565b92915050565b5f819050919050565b620002b781620002a3565b8114620002c2575f80fd5b50565b5f81519050620002d581620002ac565b92915050565b5f805f60608486031215620002f557620002f46200023e565b5b5f62000304868287016200028d565b93505060206200031786828701620002c5565b92505060406200032a868287016200028d565b9150509250925092565b6200033f8162000261565b82525050565b5f6020820190506200035a5f83018462000334565b92915050565b5f82825260208201905092915050565b7f52454a45435445442077697468203020416464726573730000000000000000005f82015250565b5f620003a660178362000360565b9150620003b38262000370565b602082019050919050565b5f6020820190508181035f830152620003d78162000398565b9050919050565b610dd080620003ec5f395ff3fe608060405234801561000f575f80fd5b50600436106100b2575f3560e01c80638da5cb5b1161006f5780638da5cb5b1461013e57806392b4e1321461015c57806395095c091461018c5780639c99c942146101a8578063f2fde38b146101b2578063fc0c546a146101ce576100b2565b806305748be2146100b657806312065fe0146100d45780633ccfd60b146100f257806366829b16146100fc578063715018a614610118578063868b726714610122575b5f80fd5b6100be6101ec565b6040516100cb9190610969565b60405180910390f35b6100dc6101f2565b6040516100e99190610969565b60405180910390f35b6100fa610299565b005b610116600480360381019061011191906109e0565b6103d5565b005b610120610420565b005b61013c600480360381019061013791906109e0565b610433565b005b610146610492565b6040516101539190610a1a565b60405180910390f35b610176600480360381019061017191906109e0565b6104b9565b6040516101839190610a4d565b60405180910390f35b6101a660048036038101906101a19190610a90565b6104d6565b005b6101b061052a565b005b6101cc60048036038101906101c791906109e0565b610759565b005b6101d66107dd565b6040516101e39190610b16565b60405180910390f35b60035481565b5f6101fb610802565b60015f9054906101000a900473ffffffffffffffffffffffffffffffffffffffff1673ffffffffffffffffffffffffffffffffffffffff166370a08231306040518263ffffffff1660e01b81526004016102559190610a1a565b602060405180830381865afa158015610270573d5f803e3d5ffd5b505050506040513d601f19601f820116820180604052508101906102949190610b43565b905090565b6102a1610802565b5f6102aa6101f2565b90505f81116102ee576040517f08c379a00000000000000000000000000000000000000000000000000000000081526004016102e590610bc8565b60405180910390fd5b60015f9054906101000a900473ffffffffffffffffffffffffffffffffffffffff1673ffffffffffffffffffffffffffffffffffffffff1663a9059cbb610333610492565b836040518363ffffffff1660e01b8152600401610351929190610be6565b6020604051808303815f875af115801561036d573d5f803e3d5ffd5b505050506040513d601f19601f820116820180604052508101906103919190610c37565b507f884edad9ce6fa2440d8a54cc123490eb96d2768479d49ff9c7366125a94243646103bb610492565b826040516103ca929190610be6565b60405180910390a150565b6103dd610802565b8060015f6101000a81548173ffffffffffffffffffffffffffffffffffffffff021916908373ffffffffffffffffffffffffffffffffffffffff16021790555050565b610428610802565b6104315f610889565b565b61043b610802565b5f60025f8373ffffffffffffffffffffffffffffffffffffffff1673ffffffffffffffffffffffffffffffffffffffff1681526020019081526020015f205f6101000a81548160ff02191690831515021790555050565b5f805f9054906101000a900473ffffffffffffffffffffffffffffffffffffffff16905090565b6002602052805f5260405f205f915054906101000a900460ff1681565b6104de610802565b5f8111610520576040517f08c379a000000000000000000000000000000000000000000000000000000000815260040161051790610cac565b60405180910390fd5b8060038190555050565b6001151560025f3373ffffffffffffffffffffffffffffffffffffffff1673ffffffffffffffffffffffffffffffffffffffff1681526020019081526020015f205f9054906101000a900460ff161515036105ba576040517f08c379a00000000000000000000000000000000000000000000000000000000081526004016105b190610d14565b60405180910390fd5b5f73ffffffffffffffffffffffffffffffffffffffff163373ffffffffffffffffffffffffffffffffffffffff1603610628576040517f08c379a000000000000000000000000000000000000000000000000000000000815260040161061f90610d7c565b60405180910390fd5b600160025f3373ffffffffffffffffffffffffffffffffffffffff1673ffffffffffffffffffffffffffffffffffffffff1681526020019081526020015f205f6101000a81548160ff02191690831515021790555060015f9054906101000a900473ffffffffffffffffffffffffffffffffffffffff1673ffffffffffffffffffffffffffffffffffffffff1663a9059cbb336003546040518363ffffffff1660e01b81526004016106db929190610be6565b6020604051808303815f875af11580156106f7573d5f803e3d5ffd5b505050506040513d601f19601f8201168201806040525081019061071b9190610c37565b507faddf19a1eb3a6b1c3b1d04a9459614423e58d8cca67cb881e1d4c50cf9ad3d403360035460405161074f929190610be6565b60405180910390a1565b610761610802565b5f73ffffffffffffffffffffffffffffffffffffffff168173ffffffffffffffffffffffffffffffffffffffff16036107d1575f6040517f1e4fbdf70000000000000000000000000000000000000000000000000000000081526004016107c89190610a1a565b60405180910390fd5b6107da81610889565b50565b60015f9054906101000a900473ffffffffffffffffffffffffffffffffffffffff1681565b61080a61094a565b73ffffffffffffffffffffffffffffffffffffffff16610828610492565b73ffffffffffffffffffffffffffffffffffffffff16146108875761084b61094a565b6040517f118cdaa700000000000000000000000000000000000000000000000000000000815260040161087e9190610a1a565b60405180910390fd5b565b5f805f9054906101000a900473ffffffffffffffffffffffffffffffffffffffff169050815f806101000a81548173ffffffffffffffffffffffffffffffffffffffff021916908373ffffffffffffffffffffffffffffffffffffffff1602179055508173ffffffffffffffffffffffffffffffffffffffff168173ffffffffffffffffffffffffffffffffffffffff167f8be0079c531659141344cd1fd0a4f28419497f9722a3daafe3b4186f6b6457e060405160405180910390a35050565b5f33905090565b5f819050919050565b61096381610951565b82525050565b5f60208201905061097c5f83018461095a565b92915050565b5f80fd5b5f73ffffffffffffffffffffffffffffffffffffffff82169050919050565b5f6109af82610986565b9050919050565b6109bf816109a5565b81146109c9575f80fd5b50565b5f813590506109da816109b6565b92915050565b5f602082840312156109f5576109f4610982565b5b5f610a02848285016109cc565b91505092915050565b610a14816109a5565b82525050565b5f602082019050610a2d5f830184610a0b565b92915050565b5f8115159050919050565b610a4781610a33565b82525050565b5f602082019050610a605f830184610a3e565b92915050565b610a6f81610951565b8114610a79575f80fd5b50565b5f81359050610a8a81610a66565b92915050565b5f60208284031215610aa557610aa4610982565b5b5f610ab284828501610a7c565b91505092915050565b5f819050919050565b5f610ade610ad9610ad484610986565b610abb565b610986565b9050919050565b5f610aef82610ac4565b9050919050565b5f610b0082610ae5565b9050919050565b610b1081610af6565b82525050565b5f602082019050610b295f830184610b07565b92915050565b5f81519050610b3d81610a66565b92915050565b5f60208284031215610b5857610b57610982565b5b5f610b6584828501610b2f565b91505092915050565b5f82825260208201905092915050565b7f204e6f7420456e6f7567682052656d61696e656420546f6b656e7300000000005f82015250565b5f610bb2601b83610b6e565b9150610bbd82610b7e565b602082019050919050565b5f6020820190508181035f830152610bdf81610ba6565b9050919050565b5f604082019050610bf95f830185610a0b565b610c06602083018461095a565b9392505050565b610c1681610a33565b8114610c20575f80fd5b50565b5f81519050610c3181610c0d565b92915050565b5f60208284031215610c4c57610c4b610982565b5b5f610c5984828501610c23565b91505092915050565b7f2052454a4543544544203020616d6f756e7420000000000000000000000000005f82015250565b5f610c96601383610b6e565b9150610ca182610c62565b602082019050919050565b5f6020820190508181035f830152610cc381610c8a565b9050919050565b7f616c6561647920636c61696d2041697244726f700000000000000000000000005f82015250565b5f610cfe601483610b6e565b9150610d0982610cca565b602082019050919050565b5f6020820190508181035f830152610d2b81610cf2565b9050919050565b7f52656a65637465642077697468203020616464726573730000000000000000005f82015250565b5f610d66601783610b6e565b9150610d7182610d32565b602082019050919050565b5f6020820190508181035f830152610d9381610d5a565b905091905056fea26469706673582212207975de29734f81112e443a8ce63ed1f08753d24fea8c12c25d7c43371469aa0064736f6c63430008140033",
    "immutableReferences": {},
    "source": "// SPDX - License-Indentifier:Mit \npragma solidity ^0.8.20;\n\nimport \"@openzeppelin/contracts/token/ERC20/IERC20.sol\"; \n//https://github.com/OpenZeppelin/openzeppelin-contracts/blob/master/contracts/token/ERC20/IERC20.sol\n\nimport \"@openzeppelin/contracts/access/Ownable.sol\"; \n//https://github.com/OpenZeppelin/openzeppelin-contracts/blob/master/contracts/access/Ownable.sol\n\ncontract Drop is Ownable { \n\n    //We need Token that we will call , so let's create interface for our Token;\n    IERC20 public token;\n\n    //Bool Mapping To understand, each adress got AirDrop or NO. If Bool True = Airdrop Get, If false = NOT Get; \n    mapping ( address => bool ) public verification;\n\n    // uint variable = how much tokens we will send for each address;\n    uint public dropAmount; \n\n    // even creation for Transfer DropToken \n    event TransferDrop ( address _to , uint amount);\n    event Withdraw ( address _to, uint amout);\n\n    //in constructor we will set token address,that we will call. And dropAmount value; With 0 address require;\n    constructor (address _token, uint _dropAmount, address _initialOwner) Ownable(_initialOwner) {\n    require(address(_token) != address(0), \"REJECTED with 0 Address\");\n    token = IERC20(_token);\n    dropAmount = _dropAmount;\n}\n\n\n    //function getDrop \n    function getDrop () external { \n        require(verification[msg.sender] != true , \"aleady claim AirDrop\");\n        require(msg.sender != address(0), \"Rejected with 0 address\");\n        verification[msg.sender] = true;\n        token.transfer(msg.sender, dropAmount);\n        emit TransferDrop ( msg.sender, dropAmount);\n    }\n\n    // function that return amount Of Tokens that are not Droped Yet;\n    function getBalance () public view onlyOwner returns ( uint )  { \n        return token.balanceOf(address(this));\n    }\n\n    //function withdrow , we need this function if some tokens are not droped and some tokens remained\n    function withdraw () external onlyOwner {\n        uint remainedAmount = getBalance();\n        require(remainedAmount > 0 , \" Not Enough Remained Tokens\");\n        token.transfer( owner() , remainedAmount );\n        emit Withdraw ( owner(), remainedAmount);\n    }\n\n    // function that will change dropAmount;\n    function dropAmountChange ( uint _amount ) external onlyOwner { \n        require(_amount > 0 , \" REJECTED 0 amount \");\n        dropAmount = _amount;\n    }\n\n    //function for Token address change, this need to be  our contract multipurpose;\n    function changeToken ( address _newTokenAdress ) external onlyOwner { \n        token = IERC20(_newTokenAdress);\n    }\n\n    //function that allow for Owner to change status for Dropper, \n    //for example we can provide for Dropper the second   opportunity to take Drop;\n    function changeVerification ( address _dropper) external onlyOwner { \n        verification[_dropper] = false;\n    }\n\n}",
    "sourcePath": "/home/harshpreet-singh/Documents/crypto-venture/airdrop-interface/airdrop-interface/contracts/Drop.sol",
    "compiler": {
        "name": "solc",
        "version": "0.8.20+commit.a1b79de6.Emscripten.clang"
    },
    "schemaVersion": "3.4.16",
    "updatedAt": "2024-11-04T06:28:12.487Z",
    "devdoc": {
        "errors": {
            "OwnableInvalidOwner(address)": [
                {
                    "details": "The owner is not a valid owner account. (eg. `address(0)`)"
                }
            ],
            "OwnableUnauthorizedAccount(address)": [
                {
                    "details": "The caller account is not authorized to perform an operation."
                }
            ]
        },
        "kind": "dev",
        "methods": {
            "owner()": {
                "details": "Returns the address of the current owner."
            },
            "renounceOwnership()": {
                "details": "Leaves the contract without owner. It will not be possible to call `onlyOwner` functions. Can only be called by the current owner. NOTE: Renouncing ownership will leave the contract without an owner, thereby disabling any functionality that is only available to the owner."
            },
            "transferOwnership(address)": {
                "details": "Transfers ownership of the contract to a new account (`newOwner`). Can only be called by the current owner."
            }
        },
        "version": 1
    },
    "userdoc": {
        "kind": "user",
        "methods": {},
        "version": 1
    }
}